:020000040800F2
:1000000040170020DD010008472C0008812000086F
:10001000452C0008010B00087D5700080000000077
:100020000000000000000000000000004501000882
:10003000030B000800000000890100084D4C000877
:10004000F7010008F7010008F7010008F7010008B0
:10005000F7010008F7010008F7010008F7010008A0
:10006000F7010008F7010008F7010008F701000890
:10007000F7010008F7010008F7010008F701000880
:10008000F7010008F7010008F7010008F701000870
:10009000F7010008F7010008F7010008F701000860
:1000A000F7010008F7010008F7010008F701000850
:1000B000F7010008F7010008F7010008F701000840
:1000C000F7010008F7010008F7010008F701000830
:1000D000F701000895550008A1550008AD55000826
:1000E000F7010008F7010008F7010008F701000810
:1000F000114D0008F7010008F7010008F70100089A
:10010000F7010008F7010008F7010008F7010008EF
:1001100045530008F7010008F7010008F70100083F
:10012000F7010008F7010008F7010008F7010008CF
:10013000DFF80CD000F072FC004800476D6A000840
:1001400040170020224B19680868B0E8F00F80F3D0
:100150000988BFF36F8F4FF0000080F311884EF0D5
:100160000D0E70470000000006480068006880F32C
:10017000088862B661B6BFF34F8FBFF36F8F00DFA1
:1001800000BF00BF08ED00E0EFF30980BFF36F8F01
:100190000F4B1A6820E9F00F106008B54FF05000BF
:1001A00080F31188BFF34F8FBFF36F8F07F0A2FF6B
:1001B0004FF0000080F31188BDE808401968086816
:1001C000B0E8F00F80F30988BFF36F8F704700BF6E
:1001D00070000020EFF3058070470000064880475C
:1001E00006480047FEE7FEE7FEE7FEE7FEE7FEE71C
:1001F000FEE7FEE7FEE7FEE7C94C00083101000814
:10020000202A04DB203A21FA02F00021704721FA6B
:1002100002F3D040C2F120029140084319467047D2
:1002200040EA01039B0703D009E008C9121F08C078
:10023000042AFAD203E011F8013B00F8013B521EF8
:10024000F9D27047D2B201E000F8012B491EFBD26F
:1002500070470022F6E710B513460A4604461946D1
:10026000FFF7F0FF204610BDF0B480EA0102D40F82
:100270004200B2EB410F02D20246084611464A0044
:1002800042D0C30DDDB2C1F3C752AD1A202D35DA0D
:10029000C1F3160141F4000204B15242C5F1200637
:1002A00002FA06F12A411044B3EBD05F23D0C4B167
:1002B000012DA0EBC35009DCF0BC4FF0004202EA74
:1002C000C352DBB200F5000000F0B3BA400000F109
:1002D000807000EBC350A0F1807040EAD1704900FB
:1002E00009E0490841EAC071A0EBC35000F50000E5
:1002F000400800EBC350F0BC00F092BA614201220A
:1003000002EB4101001BF6E7F0BC704781F00041B1
:10031000AAE780F00040A7E780EA010210B502F0EA
:100320000043400022D04A001FD0010E01EB1261B1
:10033000C0F35600C2F3560240F4000042F400023B
:10034000A0FB022000047F39140400D0401C50EAB6
:10035000124001D44000491EC2B20C0604EBD0107A
:10036000401C4008802A02D003E0002010BD20F08D
:100370000100002900DA0020184310BD30B480EAE3
:10038000010202F0004530F0004221F0004013D09D
:1003900090B1C30DD40DC2F31601C0F31600E41AD8
:1003A00041F4000140F400027D34914201D3641C09
:1003B00000E04900002C02DA30BC002070474FF406
:1003C00000000023914201D3891A034340084FEAF9
:1003D0004101F7D151B1914202D14FF0004105E006
:1003E00002D24FF0010101E06FF0010103EBC450B4
:1003F000284430BC00F014BA2DE9FE4F804681EA53
:100400000300C00F0C46009021F0004123F000458E
:10041000B8EB0200A94105D24046214690461C4651
:100420000B46024623F00040104347D0270DC7F388
:100430000A00C3F30A510290401A019040286BDA77
:10044000C3F3130040F4801B0098924620B10023B0
:10045000D2EB030A63EB0B0B01985946C0F1400243
:10046000504600F0BCF906460D4650465946019AE2
:1004700000F0C4F910EB08006141002487EA115232
:1004800084EAE7731A4340D0009A62B3019A012AC2
:100490004FEA075215DC001B61EB02014FF00042EE
:1004A00002EA0752CDE90042001C41F580113246B4
:1004B0002B4600F0FBF903B0BDE8F08F4046214623
:1004C000F9E7001B61EB0201001C41F580130018E5
:1004D0005B412018A2F5001747EB030140EAD570F5
:1004E000B6196D4111E06D084FEA360645EAC07550
:1004F0004FEA0752001B61EB0201001C41F580111D
:1005000049084FEA30000019514132462B4603B0EA
:10051000BDE8F04F00F0BBB9009801224000002375
:10052000D0EB020263EBE073009821464FEAE074DF
:10053000B8EB000061EB0401E9E783F000435BE7FF
:1005400081F0004158E72DE9FE4F81EA030404F0F1
:10055000004421F0004100944FF0000B23F00043D1
:1005600050EA01045ED052EA03045BD0C3F30A549C
:10057000C1F30A552C44A4F2F3340194A0FB0254B5
:10058000C1F3130141F48011C3F3130343F4801347
:1005900001FB024400FB034E840A970A44EA81549B
:1005A00047EA8357A4FB076802958D0A05FB078578
:1005B0004FEA932C04FB0C542705029D4FEA065882
:1005C00047EA1637B5EB08056EEB070C870E920E5F
:1005D00047EA811742EA8312A7FB0201B6EB0B013F
:1005E00064EB00042B0D43EA0C335E1844EB1C5003
:1005F000DA465146E7FB0201C5F313044FEA0B3319
:1006000043EA14534FEA0432019C43EA0603A4F17F
:100610000C040294009CCDE900B400F047F903B04B
:10062000BDE8F08F00200146F9E72DE9F04D81EAA1
:10063000030404F0004B21F0004514464FF0000A7B
:1006400023F0004150EA050220D054EA01021DD0F7
:10065000C5F30A570246C5F31303C1F31300C1F3F0
:100660000A5640F4801543F48013A7EB0608101BCC
:10067000D64608F2FD3873EB050002D308F10108F5
:1006800001E092185B41B8F1000F03DA0020014647
:10069000BDE8F08D00204FF48011064684460EE040
:1006A000171B73EB050705D3121B63EB050306430A
:1006B0004CEA010C49084FEA300092185B4150EABD
:1006C0000107EDD152EA030012D082EA040083EA66
:1006D0000501084305D0101BAB4106D201220023BF
:1006E00006E000224FF0004302E06FF001025310D9
:1006F0001AEB06004CEB085110EB0A0041EB0B0122
:10070000BDE8F04D00F0C3B870B521F000430343DD
:100710000CD0C1F30A550024D5EB040564EB0403A7
:10072000D617AD1AB34102DB0020014670BD201878
:1007300041EB025170BD0EB5C10F80EAE070084474
:10074000CA07002140F233438DE80E000A460B46EB
:1007500000F0ACF803B000BD20F00040C10DC0F3C4
:10076000160040F400007F2901DA00207047962926
:1007700003DCC1F19601C840704796398840704744
:1007800000F0004230F000400AD0C10D01F5607168
:10079000C0F3160042EA0151C208400711437047F6
:1007A00000200146704701F0004330B421F00041C1
:1007B00050EA010206D00A0DA2F56072C1F31301DE
:1007C000002A02DC30BC00207047440F44EAC10418
:1007D000C100E01830BC00EBC25000F021B8202A64
:1007E00004DB203A00FA02F1002070479140C2F188
:1007F000200320FA03F3194390407047202A06DBB8
:10080000CB17203A41FA02F043EAE07306E041FADE
:1008100002F3D040C2F120029140084319467047CC
:100820000029A8BF7047401C490008BF20F0010004
:10083000704710B4B0FA80FC00FA0CF050EA0104E2
:1008400004BF10BC704749B1CCF1200421FA04F474
:1008500011FA0CF118BF012121430843A3EB0C014D
:10086000CB1D4FEA00614FEA102042BF002010BCB0
:10087000704700EBC35010440029A4BF10BC704760
:10088000401C490008BF20F0010010BC704710B5A3
:10089000141E73F1000408DA401C41F100019218A3
:1008A0005B411A4301D120F0010010BD2DE9F04D4C
:1008B00092469B4611B1B1FA81F202E0B0FA80F2A1
:1008C00020329046FFF78BFF04460F4640EA0A00AD
:1008D00041EA0B0153465A46084313D0114653EAE6
:1008E000010019D0C8F140025046FFF789FC0546C7
:1008F0000E46504659464246FFF771FF084305D061
:10090000012004E020463946BDE8F08D0020054373
:1009100046EAE0762C4337430A986305E40AA0EBE5
:1009200008000022FD0A44EA47540A3002D500209C
:100930000146E9E7010510196941DDE9084500199B
:100940006941BDE8F04DA2E72DE9F04D00231A46BC
:100950001B1A8A4103DB00200146BDE8F08DC1F37C
:100960000A52C1F3130141F480154FF0000BD10777
:1009700002D100186D41521E0027044640F2FF11BB
:10098000384601EB620A3E468046024600204FF49C
:100990008011FFF735FCC2197141BB1846EB01000D
:1009A000B4EB030C75EB000C04D3E41A65EB000503
:1009B00017460E46241908F101006D41804634287F
:1009C000E3DDF91946EB0600091BA84103D24FF0FD
:1009D000FF32134601E0002213461BEB070046EBF3
:1009E0000A51BDE8F04DFFF752BF000030B5041EBC
:1009F00071F1000404DB4FF00044404264EB01015C
:100A0000141E73F1000405DB1C464FF000435242F4
:100A100063EB0403994208BF904230BD064C074D7A
:100A200006E0E06840F0010394E8070098471034BE
:100A3000AC42F6D3FFF780FBC48E0008E48E0008BA
:100A40000EB540F2334102910021CDE900110A4672
:100A50000B46FFF72BFF03B000BD70B5C1F30A5280
:100A600001F000450024C1F3130140F2FF3341F4CB
:100A700080119A4201DA002070BD40F233439A425D
:100A8000A2F2334203DC5242FFF7BAFB00E090408F
:100A90002C43F1D0404270BD174810B5817802292F
:100AA00027D10178012924D114490A78442A10D188
:100AB0008A780B79303A02EBC20404EB0212C9784F
:100AC00003EB820201EB8101F02303EB41011144AE
:100AD00041704178A1F11502092A01D2012107E0F4
:100AE0004A1E132A01D8032102E01E2901D3022144
:100AF000C170012010BD0000000000206A0100202C
:100B0000FEE770477047000001488078704700009A
:100B1000000000200148C07870470000000000205D
:100B20002DE9F05F90F821100024022903D0042160
:100B30008163012485E001680A6822F00E020A60E0
:100B400001680A6822F001020A603F4E3E4FB2156A
:100B5000DFF8F4C0DFF8F090DFF8ECA0DFF8E8B0E1
:100B6000DFF8E4E00168783F13011502ACF1640C92
:100B7000A9F15009AAF13C0AABF1280BAEF1140E11
:100B80004FF48018B14227D9B9420ED0614512D036
:100B900049451DD0514518D0594518D0714501D14E
:100BA000424615E0294EB14201D1012210E0274E04
:100BB0001436B14201D110220AE0244E2836B14247
:100BC00006D0224A3C32914201D11A4600E02A4620
:100BD0001E49091F0A602BE0B94213D0614517D0A6
:100BE000494522D051451DD059451DD0714501D1EF
:100BF00042461AE0B14202D14FF0807215E0134E26
:100C0000B14201D1012210E0104E1436B14201D19F
:100C100010220AE00D4E2836B14206D00B4A3C3273
:100C2000914201D11A4600E02A46074980394A60BC
:100C3000012180F82110002180F82010416B01B1C2
:100C400088472046BDE8F09F80000240080402402B
:100C500070B5044600F016F90546601C02D0044841
:100C60000078044400F00EF9401BA042FAD370BD96
:100C7000600000202DE9F84FDFF8C891002409F149
:100C8000040A0AF1040B23460F270BF1040ED1E0EE
:100C90000125A54006EA0502AA4276D1DFF8A8C1DF
:100CA0004E68A6EB0C0866452BD00DDC032E34D025
:100CB00005DC36B3012E19D0022E2FD11BE0112EE8
:100CC00016D0122E2AD119E0B8F5881F19D006DCEB
:100CD000B8F5803F15D0B8F5801F1FD111E0B8F5E9
:100CE000001F0ED0B8F5041F18D10AE0CB6815E03C
:100CF000CB681B1D12E0CB6808330FE0CB680C33C8
:100D00000CE08B682BB1012B4FF0080303D0456139
:100D100004E0042302E0056100E00023FF2A01D87B
:100D2000064601E000F104064FEA840501D9A5F169
:100D30002005D6F8008007FA05FC28EA0C0803FA1B
:100D400005F548EA0508C6F800804D68ED0070D545
:100D50003E4DAE6946F00106AE61AD6924F0030672
:100D600005F0010500953A4D06EB050CDCF808503E
:100D7000A607360F07FA06F825EA0805DFF8D4803B
:100D8000404503D14FF0000825E052E0DFF8C8806D
:100D9000404502D14FF001081DE0DFF8C08040451A
:100DA00002D14FF0020816E0DFF8B480404502D1CE
:100DB0004FF003080FE0DFF8AC80404502D14FF060
:100DC000040808E0DFF8A080404502D14FF0050894
:100DD00001E04FF0060808FA06F848EA0508CCF8E2
:100DE00008804D68D9F80060ED034D4601D51643E3
:100DF00000E096432E604D68DAF80060AD0355467A
:100E000001D5164300E096432E604D68DBF8006084
:100E1000ED025D4601D5164300E096432E604D6815
:100E2000DEF80060AD02754601D5164300E096433A
:100E30002E60641C0A681646E2407FF429AFBDE8C4
:100E4000F88F000000040140000011100010024063
:100E50000000014000080140000C0140001001406A
:100E60000014014000180140001C0140C2680A4201
:100E700001D041617047016170470AB1016170475B
:100E80000904FBE70148806870470000600000200B
:100E90000248816802781144816070476000002038
:100EA000074810B5016841F010010160032000F00F
:100EB00095F8002000F006F800F03EF8002010BD84
:100EC0000020024000B5014687B000222C2000F02F
:100ED00065F82C2000F054F81348816941F4005162
:100EE0008161806905A900F400500690684600F011
:100EF0001DF900F04BF90D490D4AB0FBF1F10D4819
:100F0000491E0260416040F2E7320021C0E903213E
:100F1000816000F05EFB10B1012007B000BD054804
:100F200000F0AAFBF9E700000010024040420F0069
:100F300000340140DC0500200F4808B5816941F00C
:100F400001018161816901F001010091C16941F0F4
:100F50008051C161C069002200F0805000900F21D3
:100F6000901E00F01BF80548416821F0E06141F057
:100F70000071416008BD0000001002400000014007
:100F8000002809DB00F01F02012191404009800088
:100F900000F1E020C0F8001170470000F0B40E4BE3
:100FA0001B680C46C3F30223C3F10705042D00D9C7
:100FB0000425191D072901D2002300E0DB1E0126AC
:100FC00006FA05F1491E214099409E40761E1640C2
:100FD0003143F0BC04F0F0BB0CED00E0064900F03A
:100FE000070208684FF6FF03184040EA0220034A50
:100FF00010430860704700000CED00E00000FA05A7
:101000002DE9F0470F46050061D0434E306800F0EF
:101010000700B84209D2306820F00700384330603A
:10102000306800F00700B84251D128683B4C810776
:1010300012D5400703D5606840F4E060606028780E
:10104000000703D5606840F4605060606068A9687C
:1010500020F0F000084360602878C00728D0686856
:10106000012810D02168022810D0890700292EDA23
:10107000616821F0030101436160FFF703FF8046CF
:1010800041F288390DE021688903EFE78901EDE736
:10109000FFF7F8FEA0EB0801494502D90320BDE89F
:1010A000F0876068696800F00C00B0EB810FEFD149
:1010B000306800F00700B8420BD9306820F0070014
:1010C00038433060306800F00700B84201D001209A
:1010D000E5E72878400705D56068E96820F4E06016
:1010E000084360602878000706D56068296920F405
:1010F000605040EAC100606000F058F86168084A3A
:10110000C1F30311515CC8400649086006480068F5
:10111000FFF7D8FE0020C2E7002002400010024086
:10112000248B00086C000020640000200F22026065
:101130000C4A536803F003034360536803F0F00361
:101140008360536803F4E063C36052684FF4E06364
:1011500003EAD20202610448006800F00700086058
:10116000704700000010024000200240044805497A
:1011700000684968044AC1F30221515CC8407047C5
:101180006C00002000100240348B00080448054920
:1011900000684968044AC1F3C221515CC8407047E5
:1011A0006C00002000100240348B000812A185B0B2
:1011B0000FC98DE80F0014A0144A0068049051680C
:1011C000134801F00C03042B10D0082B0ED1C1F3EF
:1011D0008343C9031DF803000AD5516804AAC1F36B
:1011E0004041515C0A4A5043B0FBF1F005B07047F2
:1011F00008494843FAE70000020304050607080906
:101200000A0B0C0D0E0F101001020000001002401E
:1012100000127A0000093D002DE9F84F040070D05B
:101220002078C04DC00749D06868C0F3810001280C
:1012300007D06868C0F38100022809D16868C0033C
:1012400006D52868800339D560680028E7D035E0E6
:101250006068B0F5803F0BD010B1B0F5A02F11D071
:10126000286820F480302860286820F4802002E07C
:10127000286840F480302860606890B1FFF702FE73
:1012800006460AE0286840F480202860F0E700BFA6
:10129000FFF7F8FD801B642873D828688003F7D512
:1012A0000CE0FFF7EFFD064605E000BFFFF7EAFDA3
:1012B000801B6428F0D828688003F7D420789A4EE1
:1012C00080074FF001094FF0000839D5686810F029
:1012D0000C0F07D06868C0F38100022809D1686844
:1012E000C00306D42868800714D52069012808D1D6
:1012F00010E02069B0B1C6F80090FFF7C3FD0746C3
:1013000005E00AE1FFF7BEFDC01B0228C4D828682B
:101310008007F7D52868616920F0F80040EAC1002D
:1013200028600DE0C6F80080FFF7ACFD074604E03A
:10133000FFF7A8FDC01B022823D828688007F7D430
:10134000207800072CD57948A169D9B1C0F8009060
:10135000FFF798FD074604E0FFF794FDC01B022845
:101360000FD8686A8007F7D571484FF4FA510068C2
:10137000B0FBF1F0009000BF0098411E0091FAD23E
:101380000EE080E0C0F80080FFF77CFD074604E037
:10139000FFF778FDC01B022875D8686A8007F7D46C
:1013A0002078400760D5E8690027C00008D4E869C4
:1013B00040F08050E861E869012700F0805000901B
:1013C0005C480168C90513D40168834641F4807103
:1013D0000160FFF757FD824606E000BFFFF752FDB0
:1013E000A0EB0A0064284ED8DBF80000C005F5D554
:1013F000E06801280AD008B1052813D0286A20F037
:1014000001002862286A20F0040002E0286A40F007
:1014100001002862E06841F2883B98B1FFF732FD95
:1014200082460BE0286A40F004002862EEE700BF25
:10143000FFF728FDA0EB0A0159455AD8286A800712
:10144000F6D50CE0FFF71EFD824605E0FFF71AFD1A
:10145000A0EB0A0159454CD8286A8007F6D41FB181
:10146000E86920F08050E861E06988B36968C1F3F9
:101470008101022944D00228C6F8608004D0FFF719
:1014800001FD044638E034E0FFF7FCFC074604E0C9
:10149000FFF7F8FCC01B02282BD828688001F7D47E
:1014A000206AB0F5803F05D16868A16820F400305B
:1014B00008436860D4E908010843696821F474119D
:1014C00008436860C6F86090FFF7DCFC044606E05D
:1014D00025E000BFFFF7D6FC001B022809D82868CA
:1014E0008001F7D51BE000BFFFF7CCFC001B0228F2
:1014F00002D90320BDE8F88F28688001F4D40EE0FB
:101500000128F7D06868226A00F48031914204D142
:10151000616A00F47010884201D00120EAE70020DF
:10152000E8E700000010024000004242800442420E
:101530006C000020007000407047704710B590F8B4
:101540003C20012A22D0012280F83C20CA688C6805
:1015500022F4407222434C6822F4806222430C68D9
:1015600022F4006222430C6922F4805222434C6927
:1015700022F400522243C969002322F480420A4324
:1015800001684A6480F83C30002010BD022010BD84
:1015900070B590F83C20012A19D0012400F83C4F86
:1015A0000222427050F83C3C5A689D6822F0700656
:1015B0000A684968324325F0800529435A6050F88B
:1015C0003C2C9160447000210170084670BD0220DF
:1015D00070BD10B5040003D094F83D0010B107E0D1
:1015E000012010BD002084F83C00204600F00CF8DB
:1015F000022084F83D00211D206803F08FFB0120AC
:1016000084F83D00002010BD08B5174A016817484E
:10161000914207D1816941F400618161806900F4E0
:10162000006014E0B1F1804F0AD0114A914210D10C
:10163000C16941F00201C161C06900F0020006E029
:10164000C16941F00101C161C06900F00100009071
:1016500008BD084A9142FBD1C16941F00401C16152
:10166000C06900F00400F2E7002C014000100240C5
:1016700000040040000800400168CA6842F001020E
:10168000CA600068816801F00701062903D001687B
:1016900041F0010101600020704770B5044690F8E8
:1016A0003C00012817D0012584F83C50022084F822
:1016B0003D002068826822F0770222F47F42826037
:1016C0000868502830D00DDC20284DD005DC98B3B8
:1016D00010283BD148E0022070BD302844D040287B
:1016E00034D139E0602828D0702806D0B0F5805F6A
:1016F0002CD0B0F5005F29D10AE0CB68D1E90121F7
:10170000206803F05EFB2068816841F0770109E002
:10171000CB68D1E90121206803F053FB2068816880
:1017200041F48041816011E0CA684968206803F093
:101730001DFC5021206807E016E0CA68496820684F
:1017400003F025FC6021206803F045FB84F83D5040
:10175000002084F83C0070BDCA684968206803F026
:1017600005FC40212068EFE7226801461046EBE7C0
:10177000704770B50446006801694FF00005C94321
:10178000890715D4C168C943890711D4E91E0161CD
:1017900001202077206880698007204602D0FFF76B
:1017A000E7FF04E000F024F9204600F0A6F92577D1
:1017B00020680169C943490717D4C168C94349076B
:1017C00013D46FF004010161022020772068806942
:1017D00010F4407F204602D0FFF7CAFF04E000F07B
:1017E00007F9204600F089F9257720680169C94387
:1017F000090716D4C168C943090712D46FF008015C
:101800000161042020772068C0698007204602D04B
:10181000FFF7AEFF04E000F0EBF8204600F06DF9B2
:10182000257720680169C943C90617D4C168C9432F
:10183000C90613D46FF010010161082020772068D9
:10184000C06910F4407F204602D0FFF791FF04E00A
:1018500000F0CEF8204600F050F9257720680169A5
:10186000C943C90708D1C168C943C90704D1891E42
:101870000161204600F064F920680169C943090646
:1018800009D4C168C943090605D46FF0800101611C
:101890002046FFF751FE20680169C943490609D473
:1018A000C168C943490605D46FF040010161204673
:1018B00000F050F920680169C94389060BD4C1685A
:1018C000C943890607D46FF0200101612046BDE8B5
:1018D0007040FFF732BE70BD70B586B00021009138
:1018E0000191029103910268384839490225032485
:1018F000384E824218D1886940F04000886188697A
:10190000694600F0400004904FF4D040CDE9000556
:1019100003943148FFF7AEF9706820F0C00040F042
:10192000E06040F0C0004EE02C48B2F1804F23D080
:101930002B4B9A422ED18A6942F004028A618A694D
:1019400002F0040204928A6942F008028A618969FD
:10195000039401F0080104918021CDE90015694646
:10196000FFF788F9CDE9004569461E48CDF80C40DF
:10197000FFF780F906B070BD8A6942F004028A61FF
:101980008969039401F0040104910E21CDE9001549
:101990006946EDE714488242ECD1886940F02000A6
:1019A00088618869694600F0200004904FF4604027
:1019B000CDE9000503940D48FFF75CF9706840F02D
:1019C000E06040F480507060D4E70000002C0140DB
:1019D00000100240000001400018014000080140D2
:1019E00000040040000C01400008004000140140C9
:1019F000704770B5044690F83C000D4601280DD0A4
:101A0000012684F83C60022084F83D0042B1042A9B
:101A100018D0082A2AD00C2A4DD139E0022070BDF6
:101A2000206803F0E1F92068816941F008018161D3
:101A30002068816921F004018161206881692A6937
:101A4000114311E0206803F0FFF92068816941F437
:101A5000006181612068816921F480618161206871
:101A600081692A6941EA0221816124E0206803F04A
:101A700021FA2068C16941F00801C1612068C1698B
:101A800021F00401C1612068C1692A69114311E094
:101A9000206803F043FA2068C16941F40061C16124
:101AA0002068C16921F48061C1612068C1692A6927
:101AB00041EA0221C16184F83D60002084F83C00C5
:101AC00070BD10B5040003D094F83D0010B107E0DC
:101AD000012010BD002084F83C00204600F00CF8E6
:101AE000022084F83D00211D206803F017F9012031
:101AF00084F83D00002010BD7047704710B50446C3
:101B00000068012203F050F90B492068884202D096
:101B10000A49884203D1416C41F400414164206884
:101B2000816801F00701062903D0016841F0010135
:101B30000160002010BD0000002C01400034014075
:101B400000680349884201D1FFF7A2B9704700003D
:101B5000003401407047704770B502680446106851
:101B6000D168536910F00F0F50D003F0010501F454
:101B7000907635435DD0C20705D0CA0503D5E26B28
:101B800042F00102E263420705D5DA0703D0E26BB7
:101B900042F00202E263820705D5DA0703D0E26B66
:101BA00042F00402E263020705D5DA0703D0E26BD4
:101BB00042F00802E263E26B002A33D0800604D5CB
:101BC000880602D5204603F0D9FB20684069E16B06
:101BD000C0F38010090700D428B3204603F0C0FBEF
:101BE0002068416949061AD5416921F040014161E7
:101BF000606BA0B11B494163606BFEF791FF002849
:101C000010D0606B416BBDE870400847830610D56B
:101C10008B060ED52046BDE8704003F0AFBB2046D2
:101C2000FFF799FF70BD2046FFF795FF0020E063A6
:101C300070BD030606D50B0604D52046BDE87040EE
:101C400003F044BC4006F3D54806F1D5D1682046E0
:101C500021F04001D160202184F8391000F00FFA02
:101C600070BD00005153000870B5040004D094F812
:101C70003900002510B106E0012070BD84F838500D
:101C8000204600F023F8242084F839002068C16839
:101C900021F40051C160204603F0BCFB20680169BB
:101CA00021F4904101612068416921F02A014161DC
:101CB0002068C16841F40051C160E563202084F8C8
:101CC000390084F83A00002070BD0000F0B585B0FE
:101CD0000024009401940294039403685B485A4FD3
:101CE000051502210322C614BB4225D1C36943F462
:101CF0000023C361C36903F400230493836943F0A1
:101D0000100383618069CDE9005100F01000CDE936
:101D100003204F4D69462846FEF7ACFFCDE900642D
:101D2000694628460294FEF7A5FF002205213420CB
:101D3000FFF734F9342028E0464FBB4229D18369AC
:101D400043F480438361836903F48043049383698C
:101D500043F00403836180693F4E00F00400049067
:101D60007815CDE90001039269463046FEF782FFFF
:101D7000CDE90054694630460294FEF77BFF00220D
:101D800005212520FFF70AF92520FFF7F9F805B00E
:101D9000F0BD324FBB422ED1C36943F40033C3615F
:101DA000C36903F400330493836943F02003836120
:101DB00080692B4D00F0200004902020CDE9000127
:101DC000039269462846FEF755FF4020CDE90004FE
:101DD000694628460294FEF74DFF2248416841F0CB
:101DE000E06141F008014160002205212620FFF753
:101DF000D5F82620C9E71C4FBB42C8D1C36943F4BC
:101E00008023C361C36903F480230493836943F08F
:101E1000080383618069CDE9005100F00800CDE935
:101E20000320124D69462846FEF724FFCDE90064E1
:101E3000694628460294FEF71DFF0022052127204F
:101E4000FFF7ACF82720A0E7004C0040001002404C
:101E500000100140003801400008014000440040EB
:101E6000001401400000014000480040000C014007
:101E700090F83A30202B22D1F9B1F2B190F83830F5
:101E8000012B1CD081628285C2850021C163222280
:101E900080F83A2080F838100168CA6842F48072ED
:101EA000CA6001684A6942F001024A610068C1687B
:101EB00041F02001C16000207047012070470220DE
:101EC000704700002DE9F04106460068334988421A
:101ED00009D134483249006804F07CFE02223049BE
:101EE0003148FFF7C5FF3149306800272C4D304C91
:101EF00088422ED105F1140000F11F0102782078EC
:101F00000A5438B90978552904D0012205F1140181
:101F100028483CE0401CC0B220700B2813D1D5F8F3
:101F20003300A862D5F83700E862B5F83B00288690
:101F300095F83D0085F832001F481949277028316F
:101F4000006804F047FE1649012214311948FFF7D2
:101F50008FFF1A49306888421DD111485230A0F1D4
:101F60000A01027860780A5410B9097844290AD124
:101F7000401CC0B26070052805D1A86C45F83E0F22
:101F8000A87B28716770064901220D485231BDE8CF
:101F9000F041FFF76DBFBDE8F08100000044004054
:101FA0002C010020480000205C0500200048004073
:101FB000440000209C0500204C000020004C004004
:101FC000DC0400202DE9F843044690F839001F4650
:101FD00016460D46202850D1A5B19EB194F8380080
:101FE00001284AD0012084F838004FF00008C4F8D6
:101FF0003C80212084F83900FEF744FFA684814606
:10200000E68426E00120BDE8F883E08C401EE084F1
:10201000A0684B46B0F5805F4FF000024FF08001A2
:102020002046009703D003F082FAE8B90DE003F0F0
:102030007EFAC8B928882168C0F308004860206982
:1020400008B16D1C05E0AD1C03E0216815F8010B1B
:102050004860E08C0028D8D14B4600224021204621
:10206000009703F064FA08B10320CCE7202084F83D
:10207000390084F838800020C5E70220C3E77047A4
:10208000FEE700002DE9FC5F2148224C4FF00008DC
:102090004168DFF870B081F0004626620068DFF822
:1020A00068A080F00045A562DFF860903046616A64
:1020B000FEF72CF94946FEF72FF907463146504600
:1020C000FEF72AF93946FEF7CFF80746666228463A
:1020D000E16AFEF71BF94946FEF71EF90646294656
:1020E0005046FEF719F93146FEF7BEF8E562CDE934
:1020F000007803465A464146404600F0A5FD0120BF
:10210000BDE8FC9F00000243CDCC4C3FCDCC4C3E03
:1021100014010020080000200FB42DE9F04FDBB0BF
:1021200069AC94E88102FEF72BFBCA4DCA4E2A46E1
:102130003346FEF708FADFF8248300224346FEF711
:1021400074FAFEF730FB04463846FEF719FB2A46C0
:102150003346FEF7F8F900224346FEF766FAFEF72B
:1021600022FB07464846FEF70BFB2A463346FEF79E
:10217000EAF900224346FEF758FAFEF714FB06463A
:102180002422B7494EA8FEF74BF82046FEF7F8FA8E
:102190000D46044604F0BEFAFEF705FB52902046B9
:1021A000294605F043FDFEF7FEFA80F0004053900B
:1021B0002046294605F03AFDFEF7F5FA55902046EF
:1021C000294604F0A7FAFEF7EEFAA5495690242214
:1021D000243115A8FEF724F83846FEF7D1FA0D464B
:1021E000044604F097FAFEF7DEFA159020462946D9
:1021F00005F01CFDFEF7D7FA17902046294605F09A
:1022000015FDFEF7D0FA80F000401B9020462946CD
:1022100004F080FAFEF7C7FA91491D902422483154
:102220001EA8FDF7FDFF3046FEF7AAFA0D4604464C
:1022300004F070FAFEF7B7FA1E902046294605F022
:10224000F5FCFEF7B0FA80F000401F9020462946CA
:1022500005F0ECFCFEF7A7FA21902046294604F091
:1022600059FAFEF7A0FA2290242127A8FDF7F1FFE2
:1022700024216846FDF7EDFF00260DF59C7B0DF14E
:10228000540A0DF19C0906EB460000240BEB800874
:1022900009EB80075FF0000505EB45010AEB8100C3
:1022A00050F8241058F82500FEF736F857F8241097
:1022B000FDF7DAFF6D1C47F82400032DECDB641CEE
:1022C000032CE7DB761C032EDDDB0026CA46EB463B
:1022D00006EB460000240DF178090AEB80080BEBB1
:1022E0008007002505EB450109EB810050F824101B
:1022F00058F82500FEF710F857F82410FDF7B4FF42
:102300006D1C47F82400032DECDB641C032CE8DB78
:10231000761C032EDCDB544D5248CDE942050021EA
:10232000524B44910B91CDE90903514A4791CDE9B4
:1023300045020C904F48CDE90D014F4CCDE9484581
:102340004A911191CDE90F434D91CDE94B42129441
:10235000CDE91301659809AF00EB400407EB840554
:10236000A8683D903D990298FDF7D6FFD5F804B0D6
:10237000064659460198FDF7CFFF57F824A00546B9
:1023800051460098FDF7C8FF2946FDF76DFF31461D
:10239000FDF76AFF0146669880F00040FDF7B6FF42
:1023A00042AE56F82410FDF75FFF31AF054647F8FF
:1023B00024003D990598FDF7AFFF804659460498E3
:1023C000FDF7AAFF814651460398FDF7A5FF494650
:1023D000FDF74AFF4146FDF747FF679981F000424C
:1023E00001461046FDF792FF06EB8408D8F804106A
:1023F000FDF73AFF07EB8406814670603D99089827
:10240000FDF78AFF3D9059460798FDF785FF834603
:1024100051460698FDF780FF5946FDF725FF3D9987
:10242000FDF722FF0146689880F00040FDF76EFF3F
:10243000D8F80810FDF718FF80F0004147F8241085
:10244000B560649A9560C2E900195BB0BDE8F00F11
:102450005DF814FBCD067856FB21094000806640EC
:102460003C8B00080000F542CDCCBF42000050423A
:10247000CDCCBFC2000050C20000F5C22DE9F05F14
:102480007C487D4D4468AC60207855287ED16078CA
:10249000DFF8E8A1DFF8E8B16FF00E06512804D0AC
:1024A00052284CD05328F1D19EE0A078E17862798F
:1024B0000844217911440844A1790844E179084489
:1024C000217A0844617A0844A630A17AC0B28142D8
:1024D000DCD1B4F90200FEF72EF937463246FEF79A
:1024E00013F90422FEF710F9DFF89881DFF89891CC
:1024F00042464B46FEF727F8FEF755F95D4E243E5F
:102500003060B4F90400FEF716F93A46FEF7FCF81D
:102510000422FEF7F9F842464B46FEF714F8FEF7A0
:1025200042F97060B4F90600FEF705F93A46FEF785
:10253000EBF80422FEF7E8F842464B463FE0A0786D
:10254000E17862790844217911440844A17908446A
:10255000E1790844217A0844617A0844A730A17AD5
:10256000C0B2814212D1B4F90200FEF7E4F8374656
:102570003246FEF7C9F8DFF8148100224346FDF722
:10258000E2FFFEF710F93B4E183E00E06FE03060CE
:10259000B4F90400FEF7CFF83A46FEF7B5F800228A
:1025A0004346FDF7D0FFFEF7FEF87060B4F9060071
:1025B000FEF7C1F83A46FEF7A7F800224346FDF7BA
:1025C000C2FFFEF7F0F8B060B4F90800FEF7B3F808
:1025D00000225346FEF729F85A462D4BFDF70CFF13
:1025E000FEF7E1F8286042E0A078E17862790844DB
:1025F000217911440844A1790844E1790844217AF9
:102600000844617A0844A830A17AC0B281422ED130
:10261000B4F90200FEF78FF83246FEF775F8DFF8DE
:10262000748000224346FDF78EFFFEF7BCF8114F81
:102630000C3F3860B4F90400FEF77DF83246FEF72F
:1026400063F800224346FDF77EFFFEF7ACF87860A2
:10265000B4F90600FEF76FF83246FEF755F800228F
:102660004346FDF770FFFEF79EF8B860ACE7012027
:10267000BDE8F09F20010020380000200040754098
:10268000A4703D0A9A9999999999234000409F40D6
:10269000D74342400080664030B5234DA5B0D5E910
:1026A0000001CDE91C0122A81E9000211CA804F005
:1026B0001BFA1E4C2060D5E90301CDE91F0123A8B8
:1026C000219000211FA804F00FFA60601C2205F180
:1026D00018016846FDF7A4FD0021684604F0D7FA0A
:1026E000A0601C2205F1340107A8FDF799FD002127
:1026F00007A804F0CCFAE0601C2205F150010EA8F6
:10270000FDF78EFD00210EA804F0C1FA20611C2205
:1027100005F16C0115A8FDF783FD002115A804F053
:10272000B6FA606125B030BD9C8A000848000020E0
:102730002DE9F04385B000242848009401940294C8
:102740000394816941F040018161816901F0400198
:102750000491816941F004018161816901F0040102
:102760000491816941F008018161816901F00801EA
:102770000491816941F020018161816901F02001AA
:102780000491816941F0100181618069DFF8508016
:1027900000F010000490002220214046FEF76DFB5F
:1027A000DFF84090002220214846FEF766FB2025F6
:1027B0000227012603970095CDE90164694640464A
:1027C000FEF758FA03970095CDE90164694648463B
:1027D000FEF750FA05B0BDE8F0830000001002409B
:1027E00000180140000C014010B596B000240F9471
:1027F00010941194129413941C2168461494FDF7BC
:1028000028FD202107A8FDF724FD31482F4901604C
:1028100040F2CF21C0E9011440F2CF71C0E90314A6
:1028200044618461FEF7D5FE08B1FEF76BF94FF401
:1028300080500F900FA92648FEF72FFF08B1FEF732
:1028400061F92348FFF73DF908B1FEF75BF91394EE
:1028500013A91F481494FEF79BFE08B1FEF752F926
:102860006020CDE9000402940394049405940422AA
:10287000694617480694FFF7BCF808B1FEF742F91D
:10288000082269461248FFF7B4F808B1FEF73AF992
:102890000C2269460E48FFF7ACF808B1FEF732F992
:1028A0000794089409944FF400500A94CDE90B4022
:1028B00007A907480E94FEF741FE08B1FEF722F97A
:1028C0000348FFF709F816B010BD0000002C0140C6
:1028D000DC03002010B58EB00024079408940994FE
:1028E0000A940B941C2168460C94FDF7B2FC264810
:1028F0004FF08041016040F2CF21C0E9011440F265
:10290000CF71C0E903148461FEF763FE08B1FEF7DE
:10291000F9F84FF48050079007A91B48FEF7BDFE59
:1029200008B1FEF7EFF81848FFF7CBF808B1FEF74B
:10293000E9F80B940BA914480C94FEF729FE08B192
:10294000FEF7E0F86020CDE9000402940422694615
:102950000D480494FFF74DF808B1FEF7D3F80822AC
:1029600069460948FFF745F808B1FEF7CBF80C2295
:1029700069460548FFF73DF808B1FEF7C3F802487D
:10298000FEF7AAFF0EB010BD1C04002010B58EB0DB
:1029900000240794089409940A940B941C21684617
:1029A0000C94FDF756FC27482549016040F2CF21E1
:1029B000C0E9011440F2CF71C0E903148461FEF74D
:1029C00008FE08B1FEF79EF84FF48050079007A963
:1029D0001C48FEF762FE08B1FEF794F81948FFF7AD
:1029E00070F808B1FEF78EF80B940BA915480C94FB
:1029F000FEF7CEFD08B1FEF785F86020CDE90004B2
:102A00000294042269460F480494FEF7F2FF08B1CD
:102A1000FEF778F8082269460A48FEF7EAFF08B18F
:102A2000FEF770F80C2269460648FEF7E2FF08B18F
:102A3000FEF768F80348FEF74FFF0EB010BD000028
:102A4000000400405C04002010B58EB00024079400
:102A5000089409940A940B941C2168460C94FDF781
:102A6000F8FB27482549016040F2CF21C0E9011455
:102A700040F2CF71C0E903148461FEF7AAFD08B1EA
:102A8000FEF740F84FF48050079007A91C48FEF766
:102A900004FE08B1FEF736F81948FFF712F808B13E
:102AA000FEF730F80B940BA915480C94FEF770FD57
:102AB00008B1FEF727F86020CDE900040294042253
:102AC00069460F480494FEF794FF08B1FEF71AF820
:102AD000082269460A48FEF78CFF08B1FEF712F893
:102AE0000C2269460648FEF784FF08B1FEF70AF893
:102AF0000348FEF7F1FE0EB010BD000000080040D4
:102B00009C0400200C4810B50A4901604FF416518E
:102B10004160002181600C22C160C0E90412816122
:102B2000C161FFF7A1F8002803D0BDE81040FDF710
:102B3000E9BF10BD004C0040DC0400200C4810B57B
:102B40000A4901604FF416514160002181600C2256
:102B5000C160C0E904128161C161FFF785F80028F6
:102B600003D0BDE81040FDF7CDBF10BD00380140D7
:102B70001C0500200C4810B50A4901604FF41641AD
:102B80004160002181600C22C160C0E904128161B2
:102B9000C161FFF769F8002803D0BDE81040FDF7D8
:102BA000B1BF10BD004400405C0500200C4810B5CA
:102BB0000A4901604FF4E1314160002181600C223B
:102BC000C160C0E904128161C161FFF74DF80028BE
:102BD00003D0BDE81040FDF795BF10BD0048004090
:102BE0009C050020164841680A78302A02D0312A14
:102BF00021D023E04A780121313A082A1ED2DFE8A9
:102C000002F00C040E081C0A1006022115E0032134
:102C100013E0042111E005210FE006210DE007215A
:102C20000BE08278022A02D0042A02D006E001706A
:102C300004E0082101E000210170C170012070470B
:102C400000000020FEE770472DE9F04393B01C46DA
:102C5000DDE91A6700920DF1040C15468CE8D000EE
:102C6000814688460B460246002110A8FFF754FA19
:102C700010AB0DF1100C93E8070000958CE80700ED
:102C80000DF1040C43468CE8D0004A46012110A8FF
:102C9000FFF742FA10AB0DF11C0C93E8070000950A
:102CA0008CE807000DF1040C43468CE8D0004A463E
:102CB000022110A8FFF730FA10AB0DF1280C93E8B1
:102CC000070000958CE807000DF1040C43468CE8E2
:102CD000D0004A46032110A8FFF71EFA10AB93E874
:102CE00007000DAB83E80700042104A803F072FD80
:102CF00000F004F813B00120BDE8F0832DE9FF5F78
:102D0000D44CD5492068FDF707FBFDF739FDD34AC0
:102D1000D34BFDF78AFC0022D24BFDF786FC002244
:102D2000D14BFDF710FC0022D04BFDF765FBFDF702
:102D30003AFD0546C8496068FDF7EEFAFDF720FD4B
:102D4000C64AC74BFDF771FC0022C64BFDF76DFC70
:102D50000022C54BFDF7F7FB0022C44BFDF74CFBEF
:102D6000FDF721FD0646A06880F00040FDF708FD54
:102D7000BA4ABF4BFDF7E1FBFDF715FD02F0DEF9A6
:102D8000B549FDF7C9FAFDF7FBFCB44AB44BFDF7B2
:102D90004CFC0022B34BFDF748FC0022B24BFDF780
:102DA000D2FBDFF8D08200224346FDF725FBFDF77A
:102DB000FAFC8246A849E068FDF7AEFAFDF7E0FCB0
:102DC000A64AA74BFDF731FC0022A64BFDF72DFCD0
:102DD0000022A54BFDF7B7FB00224346FDF7B0FBF1
:102DE000FDF7E1FC83469C492069FDF795FAFDF764
:102DF000C7FC9A4A9A4BFDF718FC0022994BFDF745
:102E000014FC0022984BFDF79EFB9B4F00223B4693
:102E1000FDF796FBFDF7C7FC0090606980F000406D
:102E2000FDF7AEFC8D4A924BFDF787FBFDF7BBFC2F
:102E300002F084F98849FDF76FFAFDF7A1FC874A93
:102E4000874BFDF7F2FB0022864BFDF7EEFB0022DD
:102E5000854BFDF778FB00223B46FDF771FBFDF744
:102E6000A2FC019020467C498069FDF755FAFDF7E8
:102E700087FC7A4A7A4BFDF7D8FB0022794BFDF7A5
:102E8000D4FB0022784BFDF75EFB00224346FDF7A2
:102E900057FBFDF788FC029020466F49C069FDF79B
:102EA0003BFAFDF76DFC6D4A6D4BFDF7BEFB002252
:102EB0006C4BFDF7BAFB00226B4BFDF744FB002285
:102EC0003B46FDF799FAFDF76EFC03902046006A39
:102ED00080F00040FDF754FC604A654BFDF72DFB88
:102EE000FDF761FC02F02AF95B49FDF715FAFDF7E1
:102EF00047FC5A4A5A4BFDF798FB0022594BFDF705
:102F000094FB0022584BFDF71EFB00225B4BFDF7A4
:102F100073FAFDF748FC04464E484F49406AFDF7F6
:102F2000FBF9FDF72DFC4D4A4D4BFDF77EFB0022D2
:102F30004C4BFDF77AFB00224B4BFDF704FB0022C4
:102F40004346FDF759FAFDF72EFC07464148424932
:102F5000806AFDF7E1F9FDF713FC404A404BFDF7AD
:102F600064FB00223F4BFDF760FB00223E4BFDF768
:102F7000EAFA0022424BFDF7E3FAFDF714FC814622
:102F80003448C06A80F00040FDF7FAFB334A384B02
:102F9000FDF7D3FAFDF707FC02F0D0F82E49FDF754
:102FA000BBF9FDF7EDFB2D4A2D4BFDF73EFB002253
:102FB0002C4BFDF73AFB00222B4BFDF7C4FA002205
:102FC000304BFDF7BDFAFDF7EEFB80462846FDF7D6
:102FD000C3FB2D4D296888633046FDF7BDFB29688A
:102FE000C8635046FDF7B8FB296808645846FDF7EA
:102FF000B3FB264D296888630098FDF7ADFB29686F
:10300000C8630198FDF7A8FB296808640298FDF7DA
:10301000A3FB1F4D296888630398FDF79DFB296872
:10302000C8632046FDF798FB296808643846FDF719
:1030300093FB184C216888634846FDF78DFB216897
:10304000C8634046FDF788FB2168086404B001208E
:10305000BDE8F09F0C13002000003443CD067856E5
:10306000FB2109400080664000006940002062406A
:10307000FB21F93F00C062400020634000E0604057
:103080000060634000E061401C040020DC0300207D
:103090009C0400205C04002010B504211848FEF7B1
:1030A0002DFD08211648FEF729FD0C211448FEF7D6
:1030B00025FD04211348FEF721FD08211148FEF7E4
:1030C0001DFD0C210F48FEF719FD04210E48FEF7E7
:1030D00015FD08210C48FEF711FD0C210A48FEF7EA
:1030E0000DFD04210948FEF709FD08210748FEF7F8
:1030F00005FDBDE810400C210448FEF7FFBC0000B0
:10310000DC0300201C0400205C0400209C04002040
:10311000124A10B511689620886313689921D96303
:10312000126811640E4A91231468A3631468E36360
:10313000126810640B4A1368986314689B23E36356
:1031400012688F231364084A136898631068C16378
:10315000116887200864012010BD0000DC030020F6
:103160001C0400205C0400209C0400202DE9FF4F7B
:1031700081B01C469046FDF7CDFCFF49024608EAA7
:1031800001060020FD4BFE49DFF8F8A3DFF8F8B395
:10319000082A1BD2DFE802F01A040C1B284463EA59
:1031A000FA492046FDF7B8F8F949FDF7E7F809E0D4
:1031B00019462046FDF7B0F8F549FDF7DFF8F54967
:1031C000FDF7A7F80546012E0CD0F34CEAE21946AC
:1031D0002046FDF7A1F8EE49FDF7D0F8EF49FDF7DD
:1031E00043F8EFE7EE4CDDE20546012E20460CD019
:1031F000FDF792F8E649FDF7C1F8FDF7C1FA4FF087
:103200003332E84BFDF79CF91AE0FDF785F8E04909
:10321000FDF7B4F8FDF7B4FA4FF03332E24BF1E7C3
:103220000546012E20460FD0FDF776F8D849FDF768
:10323000A5F8FDF7A5FA4FF03332DC4BFDF7DCF8CB
:10324000FDF7B1FA0446ADE2FDF766F8D049FDF7A7
:1032500095F8FDF795FA4FF03332D54BEEE7B8F11C
:10326000000F09D0B8F1010F7ED0B8F1020F7CD069
:10327000B8F1030FAAD100E22046FDF781FA054616
:103280000C4600910022CB4BCB48BE4903F082F99B
:10329000DFF8289307460E465846494604F016FDC7
:1032A000DFF81CA302460B4600205146FDF7BDF98E
:1032B00002F0EAFD3A463346FDF73FF904F0B6FC6A
:1032C00000225346FDF73FF923462A46FDF73BF916
:1032D0000022BC4BFDF7A9F9074688460022B54BF2
:1032E000B548A84903F056F904460E4658464946E3
:1032F00004F0ECFC02460B4600205146FDF795F920
:1033000002F0C2FD22463346FDF717F904F08EFCA9
:103310000022AD4BFDF717F94FF03332AB4BFDF701
:103320000FF943463A46FDF767F8FDF73CFA0446C5
:103330002E4600229F4BA0489249DDF8008003F002
:1033400029F907460D465846494604F0BFFC024697
:103350000B4600205146FDF768F902F095FD3A460C
:103360002B46FDF7EAF802E01AE0AFE021E203F0B5
:10337000D1F900225346FDF7E6F832464346FDF701
:10338000E2F800228F4BFDF750F980460F460022ED
:10339000884B89487B4903F0FDF80E460546A7E2B5
:1033A0002046FDF7EDF905460C4600910022814BC1
:1033B0008148514603F0EEF80E46074658467F49CD
:1033C00004F084FCDFF8F89102460B4600204946E1
:1033D000FDF72BF902F058FD3A463346FDF7ADF8FC
:1033E00004F024FC00224B46FDF7ADF823462A46A4
:1033F000FDF7A9F80022734BFDF717F9044688463C
:1034000000226C4B6C48514603F0C4F80E46074648
:1034100058466A4904F05AFC02460B4600204946C9
:10342000FDF703F902F030FD3A463346FDF785F823
:1034300004F0FCFB0022644BFDF785F84FF03332BB
:10344000634BFDF77DF822464346FCF7D5FFFDF7B9
:10345000AAF904462E460022564B57485146DDF83D
:10346000008003F097F807460D465846534904F08C
:103470002DFC02460B4600204946FDF7D6F802F027
:1034800003FD3A462B46FDF758F803F043F90022B6
:103490004B46FDF758F843463246FDF754F80022F4
:1034A000484BFDF7C2F8064688460022414B424889
:1034B000514603F06FF807460D4658463F4904F061
:1034C00005FC02460B460020494656E12046FDF722
:1034D00057F905460C4600910022364B36485146B6
:1034E00003F058F806460F465846344904F0EEFB00
:1034F000DFF8CC9002460B4600204946FDF795F8D0
:1035000002F0C2FC32463B46FDF717F804F08EFB92
:1035100000224B46FDF717F823462A46FDF713F81D
:103520000022284BFDF781F8064688460022214BF1
:103530002148514603F02EF807460C4658461F49CD
:1035400004F0C4FB02460B4600204946FDF76DF827
:1035500002F09AFC3A462346FCF7EFFF04F066FBC4
:103560000022194BFCF7EFFF4FF03332174BFCF7FB
:1035700043FF324643462DE00100008000004842F0
:103580000000A04199F96740713D0AD7000020C1B1
:1035900000000C420000C8419A992F420000C8C1A7
:1035A0009A992FC233F34A4033F340C033F340407B
:1035B00033F34AC000A06E409A999999C3A2F7408C
:1035C00000003440008041400000244033F3454077
:1035D00033F345C0FCF7B1FFFDF7E5F804462E468E
:1035E0000022FE4BFE485146009F02F0D3FF0546E5
:1035F00088465846FB4904F069FB02460B4600200A
:103600004946FDF712F802F03FFC2A464346FCF714
:1036100094FF03F07FF800224B46FCF794FF3246FC
:103620003B46FCF790FF0022EF4BFCF7FEFF0646FF
:103630000D460022E94BEA48514602F0ABFF07462F
:1036400088465846E74904F041FB02460B460020F5
:103650004946FCF7EAFF02F017FC3A464346FCF7FE
:103660006CFF03F057F80022E04BFCF76CFF32468A
:103670004FEA0503FCF7C0FE91E02046FDF780F815
:1036800005460C4600910022D44BD548514602F025
:1036900081FFDFF8509306460F46D548494604F0AF
:1036A00015FBDFF850B302460B4600205946FCF7E5
:1036B000BCFF02F0E9FB32463B46FCF73EFF04F05C
:1036C000B5FA00225B46FCF73EFF23462A46FCF78C
:1036D0003AFF0022C44BFCF7A8FF064688460022AA
:1036E000BE4BBF48514602F055FF07460C46C04846
:1036F000494604F0EBFA02460B4600205946FCF717
:1037000094FF02F0C1FB3A462346FCF716FF04F093
:103710008DFA0022B84BFCF716FF4FF03332B74B4F
:10372000FCF76AFE32464346FCF707FFFDF73BF81D
:1037300004462E460022A94BA9485146DDF80080D8
:1037400002F028FF07460D46A948494604F0BEFA94
:1037500002460B4600205946FCF767FF02F094FB37
:103760003A462B46FCF7E9FE02F0D4FF00225B4606
:10377000FCF7E9FE434632466AE1FCF756FF02F0E9
:1037800083FB3A462B46FCF7D8FE02F0C3FF00222B
:10379000994BFCF7D8FE32464346FCF7CEFEFDF7C8
:1037A00002F805460198964980E8320005B0BDE868
:1037B000F08FB8F1000F7DD0B8F1010F7BD0B8F1D8
:1037C000020F79D0B8F1030FECD12046FCF7D8FFF7
:1037D00005460C4600910022804B8148894902F041
:1037E000D9FEDFF8009207460E465846494604F0D7
:1037F0006DFADFF800A202460B4600205146FCF7A6
:1038000014FF02F041FB3A463346FCF796FE04F003
:103810000DFA00225346FCF796FE2A462346FCF793
:1038200092FE0022704BFCF700FF80460F460022FC
:103830006A4B6B48734902F0ADFE04460E4658468B
:10384000494604F043FA02460B4600205146FCF775
:10385000ECFE02F019FB22463346FCF76EFE04F044
:10386000E5F90022644BFCF76EFE4FF03332634BF8
:10387000FCF766FE42463B46FCF7BEFDFCF793FFB5
:1038800004462F460022554B55485E49DDF800801E
:1038900002F080FE05460E465846494604F016FAE8
:1038A00002460B4600205146FCF7BFFE02F0ECFA40
:1038B0002A4602E035E0E4E088E13346FCF73DFECD
:1038C00002F028FF00225346FCF73DFE3A464346ED
:1038D000FCF739FE0022444BFCF7A7FE80460F465A
:1038E00000223E4B3E48474902F054FE05460E4634
:1038F0005846494604F0EAF902460B460020514674
:10390000FCF793FE02F0C0FA2A463346FCF715FE98
:1039100002F000FF0022354BFCF715FE42463B4605
:10392000A8E62046FCF72CFF05460C460091002235
:103930002A4B2B48514602F02DFEDFF8A89007468F
:103940000E462B48494604F0C1F9DFF8A8B00246FC
:103950000B4600205946FCF768FE02F095FA3A46FD
:103960003346FCF7EAFD04F061F900225B46FCF700
:10397000EAFD23462A46FCF7E6FD00221A4BFCF737
:1039800054FE06460F460022144B1548514602F0DD
:1039900001FE044688461648494604F097F9024657
:1039A0000B4600205946FCF740FE02F06DFA224615
:1039B0004346FCF7C2FD04F039F900220E4BFCF738
:1039C000C2FD4FF03332104BFCF716FD32463B463A
:1039D000FCF7B3FDFCF7E7FE044617E000A06E40DD
:1039E0009A999999C3A2F74000804140000024C0F1
:1039F000713D0AD7000034400000244033F345C035
:103A00000000164399F9674033F345402E460022E3
:103A1000BA4BBB485146009F02F0BCFD80460D46A4
:103A2000B848494604F052F902460B460020594670
:103A3000FCF7FBFD02F028FA42462B46FCF77DFD21
:103A400002F068FE00225B46FCF77DFD32463B46F5
:103A5000FCF779FD0022AC4BFCF7E7FD06468846F3
:103A60000022A64BA648514602F094FD07460D469B
:103A7000A448494604F02AF902460B46002059465C
:103A80007BE62046FCF77CFE05460C4600910022B2
:103A90009A4B9B48514602F07DFDDFF87092074635
:103AA0000E465846494604F011F902460B460020DE
:103AB0009749FCF7BAFD02F0E7F93A463346FCF7BE
:103AC0003CFD04F0B3F80022914BFCF73CFD23468B
:103AD0002A46FCF738FD00228B4BFCF7A6FD8046FA
:103AE0000E460022854B8648514602F053FD07469C
:103AF0000C465846494604F0E9F802460B460020B9
:103B00008349FCF792FD02F0BFF93A462346FCF7E1
:103B100014FD04F08BF800227E4BFCF714FD4FF0EF
:103B200033327D4BFCF768FC42463346FCF705FD1B
:103B3000FCF739FE04462E460022704B7048514671
:103B4000DDF8008002F026FD07460D46584649463E
:103B500004F0BCF802460B4600206D49FCF765FDF9
:103B600002F092F93A462B46FCF7E7FC02F0D2FD50
:103B70000022674BFCF7E7FC43463246FCF7E3FCC8
:103B80000022614BFCF751FD06460F4600225B4BBD
:103B90005B48514602F0FEFC80460D4658464946B9
:103BA00004F094F802460B4600205949FCF73DFD0D
:103BB00002F06AF942462B46FCF7BFFC02F0AAFD70
:103BC0000022564BFCF7BFFC3246A8E62046FCF725
:103BD000D7FD05460C4600910022484B4848504905
:103BE00002F0D8FCDFF8249107460E4658464946B5
:103BF00004F06CF8DFF818A102460B46002051468D
:103C0000FCF713FD02F040F93A463346FCF795FC09
:103C100004F00CF800225346FCF795FC23462A4694
:103C2000FCF791FC0022384BFCF7FFFC06460F46E0
:103C30000022324B32483A4902F0ACFC80460C4636
:103C40005846494604F042F802460B4600205146C9
:103C5000FCF7EBFC02F018F942462346FCF76DFC3A
:103C600003F0E4FF00222B4BFCF76DFC4FF03332E6
:103C70002C4BFCF765FC32463B46FCF7BDFBFCF7E2
:103C800092FD04462F4600221C4B1D482449DDF8B6
:103C9000008002F07FFC05460E465846494604F077
:103CA00015F802460B4600205146FCF7BEFC02F018
:103CB000EBF82A463346FCF740FC02F02BFD0022CD
:103CC0005346FCF740FC3A464346FCF73CFC0022D6
:103CD0000D4BFCF7AAFC064688460022074B084815
:103CE0000F4902F057FC07460D465846494603F077
:103CF000EDFF02460B46002051463EE500A06E4017
:103D00009A999999713D0AD700804140C3A2F74022
:103D1000000034400000244033F345C0000024C0BC
:103D200099F9674033F345402DE9FF4F83B0904642
:103D3000FCF7F0FE0746FF48DFF8F49308EA0006B8
:103D4000DFF8F4A3DFF8F4B30698FCF719FDFC4A9A
:103D5000FC4BFCF7F8FBFC4B0022FCF766FCCDE9C2
:103D60000001082F2FD2DFE807F02E040C2F518E10
:103D7000CDFDF6490698FCF7CFFA4946FCF7FEFA66
:103D80001DE0EF4CEF4D009803F050FF22462B460C
:103D9000FCF74BFC05460C4649460698FCF7EEFA44
:103DA000FCF7EEFC2A462346FCF7C7FB0022E84B53
:103DB000FCF7C9FB0022E74BFCF71EFB21E00546A0
:103DC000012E21D0E44CFBE3DD4CDE4D009803F0E6
:103DD0002DFF22462B46FCF728FC05460C4649469B
:103DE0000698FCF7CBFAFCF7CBFC2A462346FCF7F7
:103DF000A4FB0022D94BFCF7A6FB0022D54BFCF715
:103E00009CFBFCF7D0FCDAE7D54CD9E30025012E6A
:103E1000CB4CCC4E00981CD003F008FF2246334612
:103E2000FCF703FC06460C4649460698FCF7A6FA42
:103E3000FCF7A6FC32462346FCF77FFB0022C94B69
:103E4000FCF781FBC84B4FF0333200BFFCF7D4FACC
:103E50003AE003F0EBFE22463346FCF7E6FB06466B
:103E60000C4649460698FCF789FAFCF789FC32466D
:103E70002346FCF762FB0022BA4BFCF764FB4FF0D1
:103E80003332BA4BE2E70025012EAD4CAD4E00981F
:103E90001ED003F0CBFE22463346FCF7C6FB044699
:103EA0000E4649460698FCF769FAFCF769FC22467B
:103EB0003346FCF742FB0022AA4BFCF744FB4FF0D1
:103EC0003332AB4BFCF73CFBFCF76DFC044677E36D
:103ED00003F0ACFE22463346FCF7A7FB06460C4631
:103EE00049460698FCF74AFAFCF74AFC3246234654
:103EF000FCF723FB00229B4BFCF725FB4FF03332F2
:103F00009C4BDFE7B8F1000F09D0B8F1010F7DD06D
:103F1000B8F1020F7BD0B8F1030FD8D173E200984B
:103F200003F084FE864A874BFCF77FFB04460E466F
:103F300049460698FCF722FAFCF722FC0546334670
:103F400022460291FCF7F9FADFF82C9206468846E1
:103F50000022794B7948494602F01CFB07460C4683
:103F6000864800E048E3DFF818B2594603F0AEFE99
:103F7000DFF8F0A102460B4600205146FCF755FB46
:103F800001F082FF3A462346FCF7D7FA03F04EFED3
:103F900000225346FCF7D7FA43463246FCF7D3FAE1
:103FA000044688460022644B6448494602F0F2FA0F
:103FB00007460E467148594603F088FE02460B46F6
:103FC00000205146FCF731FB01F05EFF3A463346D4
:103FD000FCF7B3FA03F02AFE00226A4BFCF7B3FAAF
:103FE0004FF03332684BFCF707FA22464346FCF7A2
:103FF000A4FAFCF7D8FB0446DDE9000103F016FE45
:104000004F4A504BFCF711FB024601E04CE038E10F
:104010000B4628460299FCF790FA06460F46002206
:10402000454B4648494602F0B5FA0546884653488E
:10403000594603F04BFE02460B4600205146FCF762
:10404000F4FA01F021FF2A464346FCF776FA02F023
:1040500061FB00225346FCF776FA32463B46FCF7FA
:1040600072FA06460F460022334B3448494602F0A6
:1040700091FA80460D464148594603F027FE024614
:104080000B4600205146FCF7D0FA01F0FDFE4246F7
:104090002B46FCF752FA02F03DFB0022394BFCF7AD
:1040A00052FA32463B46ABE1009803F0BFFD244A8A
:1040B000244BFCF7BAFA04460E4649460698FCF72C
:1040C0005DF9FCF75DFB0546334622460291FCF79D
:1040D00034FADFF8A49006460F460022164B5846E5
:1040E000494602F057FADFF894A004468846504645
:1040F000234903F0EBFD02460B4600201949FCF76B
:1041000094FA01F0C1FE22464346FCF716FA03F08A
:104110008DFD0022134BFCF716FA32463B46FCF7A6
:1041200012FA06460F460022034B584649462DE038
:1041300000000C420100008000A06E409A999999FD
:10414000CD067856FB21194000804140000020C177
:1041500000004940000039C09A992F42000049C030
:104160009A992FC20000344033F3404033F34AC0E1
:1041700033F34A4033F340C099F96740713D0AD7A1
:10418000C3A2F7400000244033F3454002F002FA96
:10419000044688465046FB4903F098FD02460B460C
:1041A0000020F949FCF741FA01F06EFE2246434631
:1041B000FCF7C3F903F03AFD0022F44BFCF7C3F916
:1041C0004FF03332F24BFCF717F932463B46FCF71F
:1041D000B4F9FCF7E8FA0446DDE9000103F026FD36
:1041E000EC4AED4BFCF721FA02460B4628460299B1
:1041F000FCF7A3F980460E460022E84B5846494694
:1042000002F0C8F907460D465046DE4903F05EFD50
:1042100002460B460020DC49FCF707FA01F034FEA9
:104220003A462B46FCF789F902F074FA0022D64B85
:10423000FCF789F942463346FCF785F906460F46F6
:104240000022D64B5846494602F0A4F90546884656
:104250005046CC4903F03AFD02460B460020CA49BD
:10426000FCF7E3F901F010FE43462A46FCF765F936
:1042700002F050FA0022CA4BFCF765F932463B4681
:1042800099E1009803F0D2FCC24AC34BFCF7CDF988
:1042900004460E4649460698FCF770F8FCF770FA9B
:1042A0000546224633460291FCF747F9DFF8F892BB
:1042B00080460C460022B94BBA48494602F06AF9DA
:1042C000DFF8C0A207460E46B848514603F0FEFC90
:1042D000DFF8B4B202460B4600205946FCF7A5F9B8
:1042E00001F0D2FD3A463346FCF727F903F09EFC75
:1042F00000225B46FCF727F942462346FCF723F9E8
:10430000044688460022A54BA648494602F042F9D9
:1043100007460E46A548514603F0D8FC02460B4618
:1043200000205946FCF781F901F0AEFD3A463346CC
:10433000FCF703F903F07AFC0022944BFCF703F935
:104340004FF033329A4BFCF7FBF843462246FCF71A
:1043500053F8FCF728FA0446DDE9000103F066FC97
:104360008C4A8D4BFCF761F902460B4628460299B0
:10437000FCF7E3F880460D460022884B8948494601
:1043800002F008F90E4607468848514603F09EFCA5
:1043900002460B4600205946FCF747F901F074FD30
:1043A0003A463346FCF7C9F802F0B4F900225B46FE
:1043B000FCF7C9F842462B46FCF7C5F80646884686
:1043C0000022764B7748494602F0E4F807460D464E
:1043D0007648514603F07AFC02460B4600205946C7
:1043E000FCF723F901F050FD3A462B46FCF7A5F8FF
:1043F00002F090F90022654BFCF7A5F83246C9E1BE
:10440000FCF79BF8D9E0009803F010FC614A624B7E
:10441000FCF70BF904460E4649460698FBF7AEFF3B
:10442000FCF7AEF90546224633460291FCF785F8C3
:10443000DFF874B1064688460022584B5948594661
:1044400002F0A8F8DFF83C9107460C465748494669
:1044500003F03CFCDFF830A102460B460020514639
:10446000FCF7E3F801F010FD3A462346FCF765F847
:1044700003F0DCFB00225346FCF765F83246434666
:10448000FCF761F8064688460022444B45485946E9
:1044900002F080F807460C464448494603F016FCF3
:1044A00002460B4600205146FCF7BFF801F0ECFC39
:1044B0003A462346FCF741F803F0B8FB0022334BA1
:1044C000FCF741F84FF03332314BFCF739F8324604
:1044D0004346FBF791FFFCF766F90446DDE900016E
:1044E00003F0A4FB2B4A2C4BFCF79FF802460B462B
:1044F00028460299FCF721F80F4606460022274B72
:104500002848594602F046F8054688462748494655
:1045100003F0DCFB02460B4600205146FCF785F811
:1045200001F0B2FC2A464346FCF707F802F0F2F825
:1045300000225346FCF707F832463B46FCF703F8E7
:10454000054688460022154B1648594602F022F8C7
:1045500007460E461548494603F0B8FB02460B468F
:1045600000205146FCF761F801F08EFC3A463346D4
:10457000FBF7E3FF02F0CEF80022094BFBF7E3FF65
:104580002A464AE3C3A2F74000003440000024401A
:1045900033F345C0CD067856FB21194000A06E408C
:1045A000000024C09A99999999F96740713D0AD7FA
:1045B00033F3454004E0FBF71FFFFCF7F4F8054632
:1045C000DDE9000102F0A6F84FF0FF32FCF79CF89D
:1045D0000022FE4BFBF7B4FF0022FD4BFBF7B3FFBD
:1045E0000022FC4BFBF7ACFFFCF7DDF8039981E8F8
:1045F000310007B0BDE8F08FB8F1000F7ED0B8F100
:10460000010F7CD0B8F1020F7AD0B8F1030FD7D1E7
:10461000009803F00BFBF04AF04BFCF706F8044659
:104620000E4649460698FBF7A9FEFCF7A9F8054691
:10463000224633460291FBF780FFDFF8ACA38046A9
:104640000F460022E64BE748514601F0A3FFDFF892
:10465000A0B304460E46E548594603F037FBDFF8A1
:10466000709302460B4600204946FBF7DEFF01F03F
:104670000BFC33462246FBF760FF03F0D7FA00221B
:104680004B46FBF760FF42463B46FBF75CFF80462C
:104690000E460022D24BD348514601F07BFF0C4618
:1046A0000746D248594603F011FB02460B4600204C
:1046B0004946FBF7BAFF01F0E7FB3A462346FBF712
:1046C0003CFF03F0B3FA0022CA4BFBF73CFF4FF06C
:1046D0003332C94BFBF790FE42463346FBF72DFFC2
:1046E000FCF761F80446DDE9000103F09FFABA4ADD
:1046F000BA4BFBF79AFF0B46024602E04CE0F3E0B0
:10470000CDE128460299FBF718FF064688460022AD
:10471000B34BB448514601F03DFF07460D46B34840
:10472000594603F0D3FA02460B4600204946FBF7F0
:104730007CFF01F0A9FB3A462B46FBF7FEFE01F099
:10474000E9FF00224B46FBF7FEFE32464346FBF7ED
:10475000FAFE054688460022A14BA248514601F0C8
:1047600019FF07460E46A148594603F0AFFA024624
:104770000B4600204946FBF758FF01F085FB3A46FF
:104780003346FBF7DAFE01F0C5FF0022994BFBF739
:10479000DAFE2A46434633E6009803F047FA8E4A8B
:1047A0008E4BFBF742FF04460E4649460698FBF740
:1047B000E5FDFBF7E5FF0546334622460291FBF790
:1047C000BCFE06460F46002253468648864901F045
:1047D000E1FEDFF81CB2044688468448594603F0DF
:1047E00075FADFF8EC9102460B4600204946FBF7CC
:1047F0001CFF01F049FB22464346FBF79EFE03F0F7
:1048000015FA00224B46FBF79EFE32463B46FBF76D
:104810009AFE07468846002253467248724901F0C4
:10482000B9FE04460E467148594603F04FFA024657
:104830000B4600204946FBF7F8FE01F025FB224617
:104840003346FBF77AFE03F0F1F90022694BFBF7E0
:104850007AFE4FF03332694BFBF772FE3A4643461D
:10486000FBF7CAFDFBF79FFF0446DDE9000103F0FB
:10487000DDF9594A594BFBF7D8FE02460B4628464C
:104880000299FBF75AFE05468846002253465548D2
:10489000554901F07FFE07460E465448594603F03D
:1048A00015FA02460B4600204946FBF7BEFE01F012
:1048B000EBFA3A463346FBF740FE01F02BFF0022AD
:1048C0004B46FBF740FE2A464346FBF73CFE0646B6
:1048D0008846002253464348434901F05BFE0746A1
:1048E0000D464248594683E1009803F09FF93A4A41
:1048F0003A4BFBF79AFE04460E4649460698FBF7EC
:104900003DFDFBF73DFF0546224633460291FBF78E
:1049100014FE0E4680460022314B3248324901F0E7
:1049200039FEDFF8C8B0DFF8C8A004460F46584685
:10493000514603F0CBF9DFF8989002460B46002071
:104940004946FBF772FE01F09FFA3B462246FBF711
:10495000F4FD03F06BF900224B46FBF7F4FD4246F1
:104960003346FBF7F0FD80460E4600221C4B1D48E7
:104970001D4901F00FFE04460F465846514603F00C
:10498000A5F902460B4600204946FBF74EFE01F012
:104990007BFA3B462246FBF7D0FD03F047F90022A5
:1049A000144BFBF7D0FD4FF03332134BFBF7C8FD30
:1049B00042463346FBF720FDFBF7F5FE0446DDE9F2
:1049C000000103F033F9044A044B19E00000E03F12
:1049D0000000344000C06240CD067856FB211940EB
:1049E00000A06E409A99999999F96740713D0AD74C
:1049F000C3A2F7400000244033F345C033F34540E1
:104A0000FBF713FE02460B4628460299FBF795FD7D
:104A1000064688460022824B8248834901F0BAFD4F
:104A20000D4607465846514603F050F902460B46DC
:104A300000204946FBF7F9FD01F026FA3A462B46DD
:104A4000FBF77BFD01F066FE00224B46FBF77BFD8A
:104A500032464346FBF777FD06460D460022704B73
:104A60007048714901F096FD074688465846514600
:104A700003F02CF902460B4600204946FBF7D5FD12
:104A800001F002FA3A464346FBF757FD01F042FEB9
:104A90000022664BFBF757FD32462B46B0E40098E8
:104AA00003F0C4F8624A634BFBF7BFFD04460E46B1
:104AB00049460698FBF762FCFBF762FE0546224674
:104AC00033460291FBF739FD044688460022544BD9
:104AD0005448554901F05EFDDFF85CB1DFF85CA198
:104AE0000E4607465846514603F0F0F8DFF850915D
:104AF00002460B4600204946FBF797FD01F0C4F93A
:104B00003A463346FBF719FD03F090F800224B4676
:104B1000FBF719FD22464346FBF715FD80460E467E
:104B200000223F4B3F48404901F034FD07460C4608
:104B30005846514603F0CAF802460B460020494643
:104B4000FBF773FD01F0A0F93A462346FBF7F5FCAD
:104B500003F06CF80022354BFBF7F5FC4FF03332D5
:104B6000384BFBF749FC42463346FBF7E6FCFBF7C4
:104B70001AFE0446DDE9000103F058F82C4A2D4BDB
:104B8000FBF753FD02460B4628460299FBF7D5FC7E
:104B9000054688460022224B2248234901F0FAFCB0
:104BA00007460E465846514603F090F802460B461B
:104BB00000204946FBF739FD01F066F93A463346D5
:104BC000FBF7BBFC01F0A6FD00224B46FBF7BBFC4C
:104BD0002A464346FBF7B7FC064688460022104BA0
:104BE0001048114901F0D6FC07460D46584651467B
:104BF00003F06CF802460B4600204946FBF715FD12
:104C000001F042F93A462B46FBF797FC01F082FD92
:104C100000220D4BFBF797FC32464346CBE40000E5
:104C200000A06E409A99999999F967400000244034
:104C3000CD067856FB211940713D0AD7C3A2F74033
:104C40000000344033F34540000024C010B550202C
:104C500080F31188BFF34F8FBFF36F8F03F0D2FD46
:104C600018B104494FF080500860002080F311888B
:104C700010BD000004ED00E030B58FB0282168467B
:104C8000FBF7E7FA14210AA8FBF7E3FA012108046D
:104C9000CDE900100024029402250491CDE90750CB
:104CA0004FF4E01009906846FCF7B6FA0F20CDE902
:104CB0000A056802CDE90C4002210AA80E94FCF70F
:104CC0009FF90FB030BD00000D48016841F00101AF
:104CD000016041680B4A1140416001680A4A114075
:104CE0000160016821F480210160416821F4FE0126
:104CF00041604FF41F0181600449C00308607047A0
:104D0000001002400000FFF8FFFFF6FE08ED00E093
:104D10000148FCF72EBD0000DC050020F0B502685C
:104D20001C4B1D4D1D4E1E4F1E4C4FF0804C98428B
:104D300009D0A04207D0604505D0A84203D0B042B8
:104D400001D0B84204D122F0700E4A6842EA0E0245
:104D5000984209D0A04207D0604505D0A84203D0B0
:104D6000B04201D0B84203D122F44075CA682A4348
:104D70004D6922F080022A4302608A68C2620A6892
:104D80008262984201D0A04201D1096901630121E8
:104D90004161F0BD002C01400004004000080040CB
:104DA000000C00400034014010B501F01F03012148
:104DB000046A99408C430462016A9A40114301627B
:104DC00010BD10B5846842EA032224F47F440A43EC
:104DD0002243826010BD826822F070020A4342F0D2
:104DE0000701816070470000F0B5026A22F00102FD
:104DF0000262036A42688469124E24F073050C68EB
:104E00002C4323F002058B682B430D4DA84201D0A3
:104E1000B04205D123F00807CB683B4323F00403DD
:104E2000A84201D0B04205D14D6922F44072154329
:104E30008A692A4342608461496841630362F0BD24
:104E4000002C014000340140F0B5026A22F010024B
:104E50000262026A436884690D6824F4E64444EA05
:104E600005248D6822F0200242EA05120F4D104EF3
:104E7000A84201D0B04206D1CF6822F0800242EAB7
:104E8000071222F04002A84201D0B04207D14D697A
:104E900023F4406343EA85038D6943EA8503436055
:104EA0008461496881630262F0BD0000002C01400A
:104EB00000340140F0B5026A22F480720262026A94
:104EC0004368C46922F4007224F073050C68124E22
:104ED0002C438D6842EA05220E4DA84201D0B04213
:104EE00006D1CF6822F4006242EA072222F48062EF
:104EF000A84201D0B04207D14D6923F4405343EAA0
:104F000005138D6943EA05134360C4614968C163B1
:104F10000262F0BD002C01400034014030B5026A4D
:104F200022F480520262046A4268C3690D6823F465
:104F3000E64343EA05238D6824F4005444EA05342B
:104F4000084DA84202D0084DA84204D14D6922F470
:104F5000804242EA85124260C3614968016404628A
:104F600030BD0000002C01400034014010B5036A40
:104F7000046A24F001040462846924F0F00444EA21
:104F8000021423F00A020A438461026210BD10B5C4
:104F9000036A23F0100303628369046A23F47043F5
:104FA00043EA023224F0A00343EA01118261016264
:104FB00010BD08B5FEF7ACF803F01EFC009000F041
:104FC000FBFA0A21684602F095FFF8E71FB50122B7
:104FD00018491948FCF74CFF03F00EFC184E174D0A
:104FE000DFF86090184C06F124074FF0000803909A
:104FF00005226846296801F0A5FD9DE8070006F135
:10500000240383E807003868202801D1FDF736FA29
:105010006068142806DD20214846FBF727FF40463C
:10502000C4F80480401C6060052103A802F062FF00
:10503000DEE70000400100209C0500204C0000201D
:10504000FC000020001801403800002010B502F0DC
:10505000B3FEFEF721F807A000F092FB4FF4FA60D0
:10506000FBF7F6FD002002F08BFFBDE8104002F0D8
:10507000C3BE00002A2A205065726970686572619B
:105080006C20696E697465642073756363657373FE
:1050900066756C6C792E202A2A200D0A000000000B
:1050A0001FB51F4C00250222A570E5701D491E4842
:1050B000FCF7DEFE01221D491D48FCF7D9FE03F076
:1050C0009BFB1C4F1C4E039005226846396801F07B
:1050D00039FDDDE90010029AB260C6E9001020290E
:1050E00015D16060FDF77EFD6068017831290ED131
:1050F0004078302807D0312807D0322801D0332813
:105100000CD0A57003E0012000E00220A070FBF7A6
:10511000C3FC0A2103A802F0EDFED5E70420F5E761
:10512000000000202C0100205C0500207E010020F2
:10513000DC04002048000020D80000202DE9F047C2
:105140000746FBF71DFB364D364C374EDFF8DC903B
:105150004FF0804AB7F5000F2CDB4FF0FF32FBF722
:10516000D3FA02F063FD00222B46FBF7ECF9FBF7C4
:105170001AFB80462146FBF777F83146FBF7CCF85F
:10518000FBF7FEFA06460D4649464046FBF7C4F8D3
:10519000FBF7F6FA07460C464046FBF7F1FA002209
:1051A000534601F09FFD3A462346FBF725F9324668
:1051B0002B462CE000221E4BFBF7C5F902F036FD12
:1051C00000222B46FBF7BFF9FBF7EDFA80460146BC
:1051D0002046FBF79BF83146FBF79EF8FBF7D0FA29
:1051E00005460E4649464046FBF796F8FBF7C8FAD7
:1051F00007460C464046FBF7C3FA0022534601F02F
:1052000071FD3A462346FBF798F92A463346FBF7E9
:105210000CFA00F077FFBDE8F047FBF7C4BA0000D6
:105220000000494000008E420000404200000E4352
:105230000000E0BF30B58FB0050006D03E4C3F49BE
:10524000A069884204DCE06907E0FDF761FF43E004
:105250000020A061E069401CE0613949A369084071
:1052600001283CD0012229460CA8FEF75DFD0CABBD
:1052700093E8070003AB83E80700022229460CA845
:10528000A369FEF751FD0CAB93E8070006AB83E87A
:105290000700002229460CA8A369FDF767FF0CABA5
:1052A00093E807008DE80700032229460CA8A369AC
:1052B000FDF75CFF0CAB93E8070009AB83E8070040
:1052C0000421684601F086FAFDF718FD4FF07E5183
:1052D000A069FAF7C9FFA0610FB0012030BD00221C
:1052E00029460CA8FEF720FD0CAB93E807008DE8DB
:1052F0000700032229460CA8A369FEF715FD0CAB95
:1053000093E8070009AB83E80700012229460CA8AF
:10531000A369FDF72BFF0CAB93E8070003AB83E811
:105320000700022229460CA8A369FDF71FFF0CAB5A
:1053300093E8070006ABC1E70800002000000C421C
:10534000010000800148FCF707BC0000DC040020DD
:1053500010B5406A0021C185C184FCF7FCFB10BD7B
:105360000168CA6822F49072CA6001684A6922F032
:1053700001024A61202180F83A10704710B590F878
:105380003A10222901D0022010BD8168B1F5805F5A
:1053900011D00169002901681FD0496801F07F031D
:1053A000816A4A1C82620B70C18D491E0904090C76
:1053B000C18518D02BE00269816A002A0268526810
:1053C00005D0D2B20A80816A491C8162ECE7C2F33F
:1053D00008020A80816A891CF7E74A68816A4B1CC7
:1053E00083620A70E0E70168CA6822F02002CA609E
:1053F0000168CA6822F48072CA6001684A6922F0B2
:1054000001024A61202180F83A10FCF75BFD002080
:1054100010BD00002DE9F041044600680169E26812
:1054200021F44051114301612169A0680843616979
:1054300008432168CA6841F20C639A430243CA6078
:1054400020684169A26921F44071114341611E49FC
:10545000206864253226884202D1FBF797FE01E0DE
:10546000FBF784FE00EBC00101EB001160686FF0F8
:1054700018078000B1FBF0F2B2FBF5F2B1FBF0F3DC
:105480007A4303EB8202B1FBF0F306EB0212B2FBAC
:10549000F5F2B3FBF5F302F0F00202EB0312B1FBFD
:1054A000F0F3B1FBF0F0B0FBF5F0784303EB8000D4
:1054B00006EB0010B0FBF5F0216800F00F0010447F
:1054C0008860BDE8F08100000038014090F8391094
:1054D000212901D0022070478168B1F5805F016AFF
:1054E0000BD04A1C0262026809785160C18C491EC7
:1054F0000904090CC1840ED017E009880268C1F3C1
:105500000801516001690029016A02D0491C016249
:10551000ECE7891CFBE70168CA6822F08002CA60D8
:105520000068C16841F04001C160002070472DE96A
:10553000F041984617460E460446069D1DE0681C3D
:105540001BD02DB1FBF79EFCA0EB0800A84214D99C
:105550002068C16821F4D071C1602068416921F0E0
:1055600001014161202084F8390084F83A000020CC
:1055700084F838000320BDE8F0812068006836EA2E
:10558000000004D00020B842D9D00020F3E7012069
:10559000F9E700000148FCF7DFBA00001C05002015
:1055A0000148FCF7D9BA00005C0500200148FCF76F
:1055B000D3BA00009C0500202DE9FC41FBF7A4FABA
:1055C000042804D0FBF7A0FA022873D0C0E0FBF750
:1055D000A1FA08281ED0604C60482168016061680B
:1055E0004160A16881600C30E1684160216901601F
:1055F00061698160FBF78EFA594D5A4F4FF07C5626
:105600004FF07E58082854D2DFE800F007555F6855
:10561000717A848DFCF736FD9AE05349A068884280
:1056200003DA4146FAF720FEA06060684FF40005F7
:105630004E4FA84203DB4146FAF768FE04E0B84249
:1056400003D34146FAF710FE60602068A84203DBEE
:105650004146FAF75BFE04E0B84203D34146FAF74D
:1056600003FE2060E068A84203DB3146FAF74EFEF5
:1056700004E0B84203D33146FAF7F6FDE060206952
:10568000A84203DB4146FAF741FE04E0B84203D3E7
:105690004146FAF7E9FD20616069A84203DB414613
:1056A000FAF734FE04E0B84245D34146FAF7DCFD90
:1056B000606140E048E04146A068FAF727FE2C49C7
:1056C000A060884237DAA16035E03146E068FAF739
:1056D0001DFEE060B8422ED9E7602CE03146E0685C
:1056E000FAF7C2FDE060A84225DDE56023E041460F
:1056F0002069FAF70BFE1F492061884208D81AE09A
:1057000041462069FAF7B0FD1B492061884212DD4D
:10571000216110E041466069FAF7A6FD6061A84288
:1057200009DD656107E041466069FAF7EFFD6061F8
:10573000B84200D967610948D0E90412CDE90012E6
:105740000FC8FDF781FA03E0FBF7E4F9FFF772FDFC
:105750000120BDE8FC81000008000020E4000020DA
:1057600000002041000020C100001643000080809E
:1057700000000243000070C100007041FEE700001D
:10578000014A024900F06EBBB1670008D00000205A
:10579000490050EAC12018BF04204A0D18BF40F04C
:1057A000010040F2FF72B2EB515F08BF40F002000F
:1057B000012808BF052070470907090E002804DBEF
:1057C00000F1E02080F80014704700F00F0000F1B5
:1057D000E02080F8141D70472DE9F74F144694B06F
:1057E0000021C4E902111599079121F00045C9492A
:1057F0008D4206DC1599C4E9000117B00020BDE810
:10580000F08FC549DFF814A3A9423CDD0799C44EC7
:105810000029C44FC44A1599534619DDFAF78DFE85
:10582000554506D0C14AC24BFAF787FEC4E90001CC
:105830000AE04FF0D352BE4BFAF77FFE32463B46AA
:10584000FAF77BFEC4E9000117B00120BDE8F08F34
:10585000FAF7D2FD554506D0B44AB54BFAF7CCFD60
:10586000C4E900010AE04FF0D352B14BFAF7C4FD8E
:1058700032463B46FAF7C0FDC4E9000117B04FF0CD
:10588000FF30BDE8F08FAB49A942159978DB21F0D4
:10589000004183468846A84AA84BFAF754FE0022E6
:1058A000A74BFAF7A9FDFBF7D8F80990FAF743FFE1
:1058B00006460F469C4A5346FAF745FE43465A466B
:1058C000FAF73EFE80468A46984A994B304639465A
:1058D000FAF739FE2A0D01250B9242465346FAF794
:1058E0002FFE032DC4E9000139D00B98C1F30A51F2
:1058F000401A05EB45111139814230DA9148C3460F
:10590000784400EB0510CDF80CA00C90D0E90023F2
:1059100030463946FAF717FE02460B4604910690C8
:1059200058460399FAF709FE80468A4602460B4616
:1059300058460399FAF701FE049B069AFAF7FDFD13
:1059400083460C9803913946D0E902233046FAF792
:10595000FAFD5A46039BFAF7F0FD6D1CBDE7079868
:105960000028A2BF099817B0BDE8F08F616881F0E8
:1059700000416160099817B04042BDE8F08FFFE731
:1059800084461598C1F31301C0F30A50A0F2F53014
:105990004FEA601800F01F06C6F1200013900020A7
:1059A0000690079041F4801E05206D4676B1664A48
:1059B00008EB00017A4452F8213002EB8101B34038
:1059C0004A68139922FA01F1194305E05F4908EB8F
:1059D0000002794451F82210A1FB0E27A1FB0C1301
:1059E0001A449A4234BF0123002303EB070A05EB54
:1059F0008003D3E901B70F448F4234BF0121002156
:105A000093448B4411B1934502D903E0934501D2ED
:105A1000012100E00021C3E901B7514445F82010FD
:105A2000011EA0F10100C1DC0298059F00F10050A9
:105A3000800F12900298DDE903568000FAF77BFE92
:105A4000834628460D91FAF7FBFF6FF01D02FAF727
:105A50005BFECDE90E013046FAF7F2FF6FF03D0232
:105A6000FAF752FE80468A463846FAF7E9FF6FF0A9
:105A70005D02FAF749FE0746424653461191FAF78E
:105A8000BBFCDDE90E23FAF7B7FC5A460D9BFAF78B
:105A9000B3FC00250E465A4628460D9BFAF74DFDED
:105AA000DDE90E23FAF749FD42465346FAF745FD74
:105AB0003A46119BFAF744FDDFF898A0244A534672
:105AC000FAF741FD07468846234A244B31462846CB
:105AD000FAF739FD3A464346FAF78EFC0746884600
